:020000040000FA
:100000000C9469000C9491000C9491000C94910054
:100010000C9491000C9491000C9491000C9491001C
:100020000C9491000C9491000C9491000C9491000C
:100030000C9491000C9491000C9491000C949100FC
:100040000C9424110C9491000C94F2100C94CC108C
:100050000C9491000C9491000C9491000C949100DC
:100060000C946E110C9491001F1C1F1E1F1E1F1F4D
:100070001E1F1E1F00000000240027002A00000091
:100080000000250028002B000000000800020100ED
:100090000003040700000000000000000000000052
:1000A00023002600290004040404040404040202BA
:1000B00002020202030303030303010204081020E7
:1000C00040800102040810200102040810208D1253
:1000D000541A11241FBECFEFD8E0DEBFCDBF24E0FD
:1000E000A2E3B2E001C01D92A238B207E1F712E02C
:1000F000A0E0B1E0E6EDFDE302C005900D92A23371
:10010000B107D9F710E0C8E6D0E004C02197FE019E
:100110000E94E61CC736D107C9F70E9469130C94E8
:10012000DE1E0C940000CF92DF92EF92FF92CF93ED
:10013000DF93B091FB03A0E08111AB2F8091FC0312
:1001400090E0880F991FAC0144565F4FC0900104A6
:10015000D0900204E0900304F090040430E020E02A
:10016000FA01C591D491E881B90190E080E0EB23D8
:10017000EA130AC02F5F3F4F6C157D058E059F0562
:1001800078F36FEF7FEFCB01DF91CF91FF90EF908E
:10019000DF90CF900895089508950895DB01149697
:1001A0004D915C9115976D917C91DC01ED91FC91E5
:1001B0000280F381E02D0994AF92BF92CF92DF923B
:1001C000EF92FF920F931F93CF93DF936C017B010C
:1001D0008B01040F151FEB015E01AE18BF08C0179D
:1001E000D10759F06991D601ED91FC910190F08110
:1001F000E02DC6010995892B79F7C501DF91CF91D3
:100200001F910F91FF90EF90DF90CF90BF90AF9034
:100210000895FC01538D448D252F30E0842F90E00C
:10022000821B930B541710F0CF96089501970895F1
:10023000FC01918D828D981761F0A28DAE0FBF2FBA
:10024000B11D5D968C91928D9F5F9F73928F90E010
:1002500008958FEF9FEF0895FC01918D828D98177F
:1002600031F0828DE80FF11D858D90E008958FEFBC
:100270009FEF0895FC01918D228D892F90E0805C85
:100280009F4F821B91098F73992708958BE493E008
:100290000E943A0121E0892B09F420E0822F089581
:1002A00080E090E0892B29F00E94460181110C9496
:1002B00000000895FC01A48DA80FB92FB11DA35A09
:1002C000BF4F2C91848D90E001968F739927848F76
:1002D000A689B7892C93A089B1898C918370806499
:1002E0008C93938D848D981306C00288F389E02D3A
:1002F00080818F7D80830895EF92FF920F931F93EB
:10030000CF93DF93EC0181E0888F9B8D8C8D9813C8
:100310001AC0E889F989808185FF15C09FB7F894D4
:10032000EE89FF896083E889F98980818370806420
:1003300080839FBF81E090E0DF91CF911F910F916B
:10034000FF90EF900895F62E0B8D10E00F5F1F4F7A
:100350000F731127E02E8C8D8E110CC00FB607FC89
:10036000FACFE889F989808185FFF5CFCE010E9417
:100370005A01F1CFEB8DEC0FFD2FF11DE35AFF4F2A
:10038000F0829FB7F8940B8FEA89FB8980818062A5
:10039000CFCFCF93DF93EC01888D8823B9F0AA8962
:1003A000BB89E889F9898C9185FD03C0808186FD30
:1003B0000DC00FB607FCF7CF8C9185FFF2CF80817F
:1003C00085FFEDCFCE010E945A01E9CFDF91CF9199
:1003D0000895833081F028F4813099F08230A9F0BB
:1003E00008958730A9F08830C9F08430B1F4809145
:1003F00080008F7D03C0809180008F778093800084
:10040000089584B58F7784BD089584B58F7DFBCF23
:100410008091B0008F778093B00008958091B000F4
:100420008F7DF9CFCF93DF93282F30E0F901E85784
:10043000FF4F8491F901E654FF4FD491F901EA5539
:10044000FF4FC491CC23A1F081110E94E901EC2F50
:10045000F0E0EE0FFF1FE456FF4FA591B491EC9131
:10046000ED2381E090E009F480E0DF91CF910895E1
:1004700080E090E0FACF1F93CF93DF93282F30E0F6
:10048000F901E857FF4F8491F901E654FF4FD491E9
:10049000F901EA55FF4FC491CC23A9F0162F811121
:1004A0000E94E901EC2FF0E0EE0FFF1FE258FF4F32
:1004B000A591B4918FB7F894EC91111108C0D09523
:1004C000DE23DC938FBFDF91CF911F910895DE2B48
:1004D000F8CFCF93DF9390E0FC01E654FF4F2491D7
:1004E0008A559F4FFC0184918823C9F090E0880FC2
:1004F000991FFC01EC58FF4FA591B491FC01E25803
:10050000FF4FC591D49161110DC09FB7F8948C91A4
:10051000209582238C938881282328839FBFDF9195
:10052000CF910895623051F49FB7F8943C91822F97
:10053000809583238C93E8812E2BEFCF8FB7F8948F
:10054000EC912E2B2C938FBFEACF3FB7F89480917C
:10055000E5029091E602A091E702B091E80226B58B
:10056000A89B05C02F3F19F00196A11DB11D3FBFEB
:10057000BA2FA92F982F8827BC01CD01620F711DBA
:10058000811D911D42E0660F771F881F991F4A95B4
:10059000D1F708958F929F92AF92BF92CF92DF9240
:1005A000EF92FF924B015C010E94A5026B017C015E
:1005B0000E94A5026C197D098E099F09683E73404F
:1005C00081059105A8F321E0821A9108A108B108DC
:1005D00088EEC80E83E0D81EE11CF11C8114910442
:1005E000A104B10429F7FF90EF90DF90CF90BF9066
:1005F000AF909F908F900895CF92DF92EF92FF92ED
:100600000F931F93CF93DF93CDB7DEB7C054D14084
:100610000FB6F894DEBF0FBECDBF2FB7F894809110
:10062000470390914803A0914903B0914A032FBF1B
:100630004091FD035091FE036091FF03709100040F
:100640008C019D01041B150B260B370BB901A8016A
:10065000403D57406105710590F480910504C05CF0
:10066000DE4F0FB6F894DEBF0FBECDBFDF91CF9146
:100670001F910F91FF90EF90DF90CF90089580939E
:10068000FD039093FE03A093FF03B0930004109228
:10069000F8031092F7031092F6031092F5031092EC
:1006A000F40362E08091F9030E94690261E070E066
:1006B00080E090E00E94CA0261E08091F9030E940C
:1006C000690260E08091F9030E943B028091FA0385
:1006D0008551823020F58BE291E10197F1F762E0DC
:1006E0008091F9030E9469028091060490E08230B3
:1006F000910538F0880F991F880F991F059701976A
:10070000F1F7F89480E00E9493006F3F7F4F8F4F86
:100710009F4F61F410920504789480E0A0CF64E1CB
:1007200070E080E090E00E94CA02D9CF81E00E9490
:1007300093006F3F7F4F8F4F9F4F61F38E010F5F8D
:100740001F4F6E018FEBC81A8EEFD80A780180E038
:100750000E949300F701608371838283938381E019
:100760000E949300F7016483758386839783F8E082
:10077000EF0EF11CEC14FD0451F7789430E020E00A
:10078000F801C080D180E280F38044815581668188
:100790007781FFEFCF16DF06EF06FF0631F04F3F00
:1007A0008FEF58076807780719F410920504B5CF42
:1007B000F90183E0F595E7958A95E1F7EC50FC4F58
:1007C0008081880FC416D506E606F70610F18083EF
:1007D0002F5F3F4F085F1F4F2832310589F6409148
:1007E000F8032091F4038091F503280F3327331F7A
:1007F0008091F603280F311D8091F703820F932F0C
:10080000911D99274817190681F681E08093050408
:1008100026CF8160DCCF20917302260F3327331F50
:1008200021323105ECF42091BC02FC0190E080E023
:10083000243069F082E00895A09173022191AC0107
:100840004D5A5D4FA40FB52FB11D2C9301968617FD
:1008500098F380917302680F6093730280E00895AB
:1008600081E008951092BC0281E08093BB02109257
:10087000960261E082E10E943B0261E083E10E9416
:100880003B02E9EBF0E080818E7F808380818D7F69
:10089000808388E48093B80085E48093BC00089549
:1008A000CF93DF9391E0909352028823B9F0C091E7
:1008B000B800D091BA008091BC008A7B8093BC00C4
:1008C00060E082E10E943B0260E083E10E943B0223
:1008D0000E943204D093BA00C093B800DF91CF9148
:1008E00008950895E091F0028091EF02E81730F446
:1008F000F0E0EE5CFD4F808190E008958FEF9FEF78
:1009000008959091F0028091EF022FEF3FEF98173A
:1009100048F4E92FF0E0EE5CFD4F208130E09F5F6E
:100920009093F002C90108958091EF029091F00236
:10093000891B990B0895CF92DF92EF92FF920F934C
:100940001F93CF93DF937C01CB018A012091C202D8
:10095000222389F0EB016B01C40ED51ECC15DD05F9
:1009600069F06991D701ED91FC910190F081E02D42
:10097000C7010995F3CF642F0E940B04C801DF91D2
:10098000CF911F910F91FF90EF90DF90CF9008953E
:10099000CF93DF931F92CDB7DEB769832091C20258
:1009A0002223F9F02091ED02203258F021E030E0CE
:1009B000FC013383228390E080E00F90DF91CF91A0
:1009C00008958091EE02E82FF0E0ED53FD4F9981FC
:1009D00090838F5F8093EE028093ED0281E090E040
:1009E000ECCF61E0CE0101960E940B04F7CFCF92CD
:1009F000DF92EF92FF920F931F93CF93DF93FC014F
:100A0000C48121E02093C202C093E3021092EE025F
:100A10001092ED028385682B88EE93E00E94C80453
:100A2000D091ED02D13208F092C00E94A5026B0174
:100A30007C018091BC02811165C082E08093BC0280
:100A400081E08093BB028FEF8093BA021092B902CB
:100A5000D093B802A3ECB2E0E8E9F2E080E0D8136A
:100A600085C01092970280919702CC0FC82BC0933B
:100A7000970280919602813009F07CC01092960214
:100A80000E94A5026B017C01809197028093BB00BC
:100A90008091BE029091BF02A091C002B091C102AC
:100AA000892B8A2B8B2B99F00E94A5020091BE0204
:100AB0001091BF022091C0023091C1026C197D09D2
:100AC0008E099F090617170728073907E0F180915B
:100AD000BC0083FDD9CF85EC8093BC000E94A502A9
:100AE0006B017C018091BC02823009F445C0809189
:100AF000BA028F3F61F18091BA02803241F1809158
:100B0000BA0225C08091BE029091BF02A091C0029E
:100B1000B091C102892B8A2B8B2B09F48ACF0E94BA
:100B2000A5020091BE021091BF022091C002309137
:100B3000C1026C197D098E099F090617170728073E
:100B4000390708F076CF8091BD020E9450041092C0
:100B5000EE021092ED021092C202DF91CF911F912E
:100B60000F91FF90EF90DF90CF9008959D9191931A
:100B70008F5F75CF85EEB0CF8091BE029091BF029E
:100B8000A091C002B091C102892B8A2B8B2B09F452
:100B9000A9CF0E94A5020091BE021091BF02209130
:100BA000C0023091C1026C197D098E099F09061798
:100BB00017072807390708F095CFC5CF90E080E0E8
:100BC0000895FC0161819081492F50E08281282F96
:100BD00030E0E8E6F0E081E0861730F47491270F0A
:100BE000311D8F5F3196F8CF633020F0937011F490
:100BF0002F5F3F4F6DE671E0469FC001479F900D0C
:100C0000569F900D112405964D5F5F4F5695479561
:100C100056954795840F951F820F931F67E070E0EC
:100C20000E949C1C0895FC019F012F5F3F4F808113
:100C30008F7E803269F080E02AE0919130ED390FAB
:100C40003A3040F4829F900D112480ED890FF5CF4A
:100C5000F901EACF0895EF92FF920F931F93CF937C
:100C6000DF93EC017B018A01CB0109960E941306F8
:100C70008883D701EC91E154E33100F50E2E000C8E
:100C8000FF0BEB5BF94F0C94E61C82065E065E06DA
:100C900098065E0680065E065E065E0658065E06DE
:100CA0005E068A06960694065E065E065E06920656
:100CB000F70181818136E1F481E08983C7010496DF
:100CC0000E9413068A83C8010E9413068B83C80101
:100CD00003960E9413068C83C80106960E94130691
:100CE0008D83DF91CF911F910F91FF90EF90089529
:100CF00012968C918E3611F486E0DFCF87E0DDCF3F
:100D000082E0DBCFF7018181803711F088E0D5CF19
:100D100084E0D3CF12968C91823711F085E0CDCF4D
:100D200083E0CBCF89E0C9CF8AE0C7CF8BE0C5CFC6
:100D30008CE0C3CF60E00E943B028BE090E0019723
:100D4000F1F70895CF93DF93EC018091FB0290912E
:100D5000FC0261E00E9469028091FB029091FC021A
:100D600060E00E943B02C230D10539F1239709F4BB
:100D700044C08091F7029091F80261E00E946902FC
:100D80008091F7029091F80260E00E943B026AE0D5
:100D900070E080E090E00E94CA028091F70290919A
:100DA000F80261E00E9469028091F7029091F802D6
:100DB00061E0DF91CF910C943B028091F50290911C
:100DC000F60261E00E9469028091F5029091F602BC
:100DD00060E00E943B026AE070E080E090E00E94E8
:100DE000CA028091F5029091F60261E00E946902C8
:100DF0008091F5029091F602DBCF8091F302909101
:100E0000F40261E00E9469028091F3029091F40281
:100E100060E00E943B026AE070E080E090E00E94A7
:100E2000CA028091F3029091F40261E00E9469028B
:100E30008091F3029091F402BBCF0F931F93CF9355
:100E4000C82F60E00E9469028C2F0E9412028C0160
:100E500061E08C2F0E94690281E0012B09F480E09F
:100E6000CF911F910F9108950F931F93CF938C01F2
:100E7000C62F0E94F7046C2F6460C8010E94F7041B
:100E80006C2F6B7FC8010E94F70483EC90E0019700
:100E9000F1F7CF911F910F9108950F931F93CF9367
:100EA000DF938C01D62FC42F607F642B0E94340700
:100EB00080E1D89FB00111246C2BC801DF91CF9144
:100EC0001F910F910C943407CF93DF93CDB7DEB70A
:100ED00028970FB6F894DEBF0FBECDBF98E0E6E0CE
:100EE000F1E0DE01119601900D929A95E1F7909153
:100EF0002704961710F46FEF690F262F30E0220FAA
:100F0000331F41E050E04C0F5D1F240F351FF901E6
:100F10006081680F606840E08FE194E028960FB62A
:100F2000F894DEBF0FBECDBFDF91CF910C944D077B
:100F300040E061E08FE194E00E944D078BE39FE188
:100F40000197F1F7089541E00E944D0781E090E09C
:100F50000895EF92FF921F93CF93DF937C01D0E02F
:100F6000C0E010E0F70180810E9412020C2E01C047
:100F7000880F0A94EAF7182B61E0F70181810E943B
:100F80003B0260E0F70181810E943B022196C8305C
:100F9000D10541F7812FDF91CF911F91FF90EF9005
:100FA0000895FF920F931F93CF93DF938C01D62F59
:100FB000F42EC0E06D2F6170F80180810E943B0229
:100FC00061E0F80181810E943B02C73039F4FF20C3
:100FD00029F060E0F80180810E94690260E0F80178
:100FE00081810E943B02D695CF5FC83019F7DF910F
:100FF000CF911F910F91FF9008951F93CF93DF938F
:10100000EC01162F60E08A810E943B0261E08A8138
:101010000E94690260E089810E943B0261E089814F
:101020000E94690261E088810E94690261E08A8110
:101030000E943B028BE090E00197F1F7412F417055
:10104000612FCE01DF91CF911F910C94D107CF92E8
:10105000DF92EF92FF920F931F93CF93DF9300D015
:1010600000D000D0CDB7DEB76FEB80916D049091CA
:101070006E040E94FD0780916D0490916E040E94A1
:10108000A9078F77282F30E0F4E035952795FA955A
:10109000E1F7922F990F990F022F091B000F080FEC
:1010A00080916D0490916E040E94A907282F30E072
:1010B000A4E035952795AA95E1F7922F990F990FFE
:1010C000F22EF91AFF0CF80E80916D0490916E04C7
:1010D0000E94A90786FF77C0982F9F71292F30E0C3
:1010E000E4E035952795EA95E1F7322F330F330F7A
:1010F000122F131B110F190F85FD145F80916D04C2
:1011000090916E040E94A907282F30E094E0359555
:1011100027959A95E1F7922F990F990FE22EE91AE8
:10112000EE0CE80E80916D0490916E040E94A90768
:10113000282F30E044E0359527954A95E1F7922F26
:10114000990F990FD22ED91ADD0CD80E80916D040B
:1011500090916E040E94A90780916D0490916E0495
:101160000E94A907482F50E064E0559547956A957D
:10117000E1F7942F990F990FC42EC91ACC0CC80E01
:1011800080916D0490916E040E94A907E0916D0416
:10119000F0916E0482810E949A0696014E2D512F85
:1011A0006F2D702F80E090E026960FB6F894DEBF8A
:1011B0000FBECDBFDF91CF911F910F91FF90EF90A8
:1011C000DF90CF900895282F30E074E03595279573
:1011D0007A95E1F7922F990F990F122F191B110F82
:1011E000180F8CCF1F93CF93DF93EC016EEB8091A0
:1011F0006D0490916E040E94FD072D811AE0822FEC
:10120000612F0E94901C682F660F680F660F620F97
:1012100040E080916D0490916E040E94D1072C8172
:10122000822F612F0E94901C682F660F680F660F37
:10123000620F40E080916D0490916E040E94D1078E
:101240002B81822F612F0E94901C682F660F680FE0
:10125000660F620F40E080916D0490916E040E94D1
:10126000D1072A81822F612F0E94901C682F660F60
:10127000680F660F620F40E080916D0490916E04DC
:101280000E94D1072981822F612F0E94901C682F14
:10129000660F680F660F620F40E080916D049091B9
:1012A0006E040E94D107CE010E94E105282F811112
:1012B00001C027E01AE0822F612F0E94901C682F46
:1012C000660F680F660F620F40E080916D04909189
:1012D0006E040E94D1072881822F612F0E94901CEA
:1012E000682F660F680F660F620F40E080916D04F3
:1012F00090916E040E94D10740E060E080916D04FF
:1013000090916E040E94D107E0916D04F0916E04FB
:101310008281DF91CF911F910C949A068F929F92B8
:10132000AF92BF920F931F93CF93DF93CDB7DEB7EA
:10133000A1970FB6F894DEBF0FBECDBF19A2423001
:1013400008F44AE08E010F5D1F4F842E912CB12CC2
:10135000A12CA50194010E94C41CE62FB901CA0169
:10136000EA3044F5E05DD801EE938D01232B242B68
:10137000252B79F790E080E0109769F0FD0101904E
:101380000020E9F73197AF014A1B5B0BBD018FE1EC
:1013900094E00E94DC00A1960FB6F894DEBF0FBE69
:1013A000CDBFDF91CF911F910F91BF90AF909F90D4
:1013B0008F900895E95CD7CFCF93DF93BC018BE486
:1013C00093E00E94CE00EC0142E050E068E571E05D
:1013D0008BE493E00E94DC008C0F9D1FDF91CF9186
:1013E00008950F931F93CF93DF938C01EB01FC01C2
:1013F000808191810097E1F06881798161157105A3
:10140000A9F0428153812C813D814217530770F02E
:101410000E94D71E8C819D81F801958384831D8253
:101420001C82DF91CF911F910F9108950E94881D1A
:1014300088819981F801918380838A819B8193833C
:1014400082838C819D8195838483198218821B827B
:101450001A82E5CFCF93DF93EC01888199810097C1
:1014600011F00E94881D198218821D821C821B8225
:101470001A82DF91CF910895FC01808191810097BC
:1014800011F00C94881D08950F931F93CF93DF9351
:10149000EC0188819981009759F02A813B812617B8
:1014A000370730F081E0DF91CF911F910F910895C0
:1014B0008B016F5F7F4F0E94111E009759F0998337
:1014C00088831B830A832C813D81232B59F7FC01E0
:1014D0001082E8CF80E0E7CFEF92FF920F931F9347
:1014E000CF93DF93EC01FB01E080F180E114F10484
:1014F00011F10481158101151105A9F08C819D81DF
:10150000080F191FB801CE010E94440A882399F0E0
:10151000288139818C819D81B701820F931F0E94A0
:10152000D71E1D830C83CE01DF91CF911F910F91A8
:10153000FF90EF900895CE010E942A0AF4CFEF9217
:10154000FF920F931F93CF93DF93EC017B018A01EE
:10155000BA010E94440A81110BC0CE010E942A0ADE
:10156000CE01DF91CF911F910F91FF90EF900895E1
:101570001D830C83B701888199810E94D71EF0CF0B
:10158000FB0101900020E9F73197AF01461B570B93
:101590000C949F0A0F931F93CF93DF93CDB7DEB7C1
:1015A00062970FB6F894DEBF0FBECDBF8C01CB01A2
:1015B000F8011182108213821282158214824AE08D
:1015C000BE016F5F7F4F0E94861ABE016F5F7F4F23
:1015D000C8010E94C00A62960FB6F894DEBF0FBE23
:1015E000CDBFDF91CF911F910F910895CF93DF93DE
:1015F000EC01FB018617970749F060817181611545
:10160000710541F0448155810E949F0ACE01DF910E
:10161000CF9108950E942A0AF9CFFC01118210820D
:1016200013821282158214820C94F60AFC01118234
:1016300010821382128215821482FB010190002015
:10164000E9F73197AF01461B570B0C949F0ACF93D4
:10165000DF93CDB7DEB762970FB6F894DEBF0FBE4B
:10166000CDBF0E9498076AE571E089E194E00E948D
:10167000C00A6AE571E083E194E00E94C00A6BE56C
:1016800071E0CE010D960E94160B69E174E0CE0167
:1016900001960E940D0BBE016F5F7F4FCE01079632
:1016A0000E940D0BBE01635F7F4FCE0107960E9423
:1016B0006C0ABC0189E194E00E94F60ACE0107960B
:1016C0000E943C0ACE0101960E943C0ACE010D9672
:1016D0000E943C0A6BE671E0CE010D960E94160B4B
:1016E00063E174E0CE0101960E940D0BBE016F5FB5
:1016F0007F4FCE0107960E940D0BBE01635F7F4FA7
:10170000CE0107960E946C0ABC0183E194E00E941E
:10171000F60ACE0107960E943C0ACE0101960E946D
:101720003C0ACE010D960E943C0A60E080E00E94D7
:10173000640769E174E08FE194E00E94CE0061E00B
:1017400080E00E94640763E174E08FE194E00E940E
:10175000CE0062960FB6F894DEBF0FBECDBFDF910C
:10176000CF910895CF93DF93CDB7DEB762970FB6D1
:10177000F894DEBF0FBECDBF0E94270829833A83AD
:101780004B835C836D837E8330E02053384F3093EE
:101790002A03209329030E94270829833A834B8335
:1017A0005C836D837E83832F90E0909328038093E6
:1017B00027030E94270829833A834B835C836D8328
:1017C0007E8350E050932603409325030E94270810
:1017D00029833A834B835C836D837E83852F90E0DE
:1017E00090934603809345030E94270829833A83F8
:1017F0004B835C836D837E8370E0709320036093E2
:101800001F030E94270829833A834B835C836D83DF
:101810007E83872F90E090931E0380931D030E9488
:10182000270829833A834B835C836D837E83CE01B3
:1018300001960E94E10590E09093040380930303D6
:101840006091450370914603CE010D960E94CA0A2D
:101850006BE771E0CE0101960E94160BBE016F5F2F
:101860007F4FCE0107960E940D0BBE01635F7F4F35
:10187000CE0107960E946C0A0E94DC09CE010796F1
:101880000E943C0ACE0101960E943C0ACE010D96B0
:101890000E943C0A60911F0370912003CE010D96B7
:1018A0000E94CA0A6BE771E0CE0101960E94160BF6
:1018B000BE016F5F7F4FCE0107960E940D0BBE01E8
:1018C000635F7F4FCE0107960E946C0A0E94DC097D
:1018D000CE0107960E943C0ACE0101960E943C0A66
:1018E000CE010D960E943C0A60911D0370911E036B
:1018F000CE010D960E94CA0A6BE771E0CE010196F7
:101900000E94160BBE016F5F7F4FCE0107960E94AB
:101910000D0BBE01635F7F4FCE0107960E946C0ADC
:101920000E94DC09CE0107960E943C0ACE01019676
:101930000E943C0ACE010D960E943C0A62960FB6A8
:10194000F894DEBF0FBECDBFDF91CF910895EF9227
:10195000FF920F931F93CF93DF93CDB7DEB76297BC
:101960000FB6F894DEBF0FBECDBF7C018B016AE5D8
:1019700071E081E694E00E94C00AB801CE010A300D
:101980001105D8F50D960E94CA0A60E871E0CE01F3
:1019900001960E94160BBE016F5F7F4FCE01079626
:1019A0000E940D0BBE01635F7F4FCE0107960E9420
:1019B0006C0ABC0181E694E00E94F60ACE0107960B
:1019C0000E943C0ACE0101960E943C0ACE010D966F
:1019D0000E943C0A61E674E0C7010E940D0BC7013A
:1019E00062960FB6F894DEBF0FBECDBFDF91CF91E8
:1019F0001F910F91FF90EF90089501960E94CA0ADF
:101A0000BE016F5F7F4F81E694E00E94F109CE0135
:101A100001960E943C0ADECFCF93DF93CDB7DEB7AD
:101A200062970FB6F894DEBF0FBECDBF62E871E0DB
:101A3000CE010D960E94160B6091450370914603EE
:101A4000CE0101960E94A70CBE016F5F7F4FCE01B1
:101A500007960E940D0BBE01635F7F4FCE01079674
:101A60000E946C0ABC0188E794E00E94F60ACE014D
:101A700007960E943C0ACE0101960E943C0ACE01C4
:101A80000D960E943C0A60911F0370912003CE01C5
:101A90000D960E94A70C68E774E0CE0101960E94A3
:101AA0000D0BBE016F5F7F4FCE0107960E940D0B9D
:101AB000BE01635F7F4FCE0107960E946C0ABC0196
:101AC00088E794E00E94F60ACE0107960E943C0A3D
:101AD000CE0101960E943C0ACE010D960E943C0A5E
:101AE00062E871E0CE010D960E94160B68E774E083
:101AF000CE0101960E940D0BBE016F5F7F4FCE019C
:101B000007960E940D0BBE01635F7F4FCE010796C3
:101B10000E946C0ABC0188E794E00E94F60ACE019C
:101B200007960E943C0ACE0101960E943C0ACE0113
:101B30000D960E943C0A60911D0370911E03CE0118
:101B40000D960E94A70C68E774E0CE0101960E94F2
:101B50000D0BBE016F5F7F4FCE0107960E940D0BEC
:101B6000BE01635F7F4FCE0107960E946C0ABC01E5
:101B700088E794E00E94F60ACE0107960E943C0A8C
:101B8000CE0101960E943C0ACE010D960E943C0AAD
:101B900060E072E0CE010D960E94160B68E774E0DB
:101BA000CE0101960E940D0BBE016F5F7F4FCE01EB
:101BB00007960E940D0BBE01635F7F4FCE01079613
:101BC0000E946C0ABC0188E794E00E94F60ACE01EC
:101BD00007960E943C0ACE0101960E943C0ACE0163
:101BE0000D960E943C0A60E083E00E94640768E76B
:101BF00074E08FE194E00E94CE0068E774E0CE01CB
:101C00000D960E940D0B64E871E0CE0101960E94D2
:101C1000160BBE016F5F7F4FCE0107960E940D0B22
:101C2000BE01635F7F4FCE0107960E946C0A0E943F
:101C3000DC09CE0107960E943C0ACE0101960E9463
:101C40003C0ACE010D960E943C0A62960FB6F894AB
:101C5000DEBF0FBECDBFDF91CF910895CF93DF934D
:101C6000CDB7DEB76E970FB6F894DEBF0FBECDBF0F
:101C70000E94B20B0E940C0D64E971E0CE01019646
:101C80000E94160B6091290370912A03CE010D96D4
:101C90000E94CA0ABE01635F7F4FCE0107960E9471
:101CA0000D0BBE016F5F7F4FCE0107960E946C0A3D
:101CB000BC0182E794E00E94F60ACE0107960E94DA
:101CC0003C0ACE010D960E943C0ACE0101960E946C
:101CD0003C0A6091270370912803CE0101960E946F
:101CE000A70C62E774E0CE010D960E940D0BBE01B9
:101CF000635F7F4FCE0107960E940D0BBE016F5FA1
:101D00007F4FCE0107960E946C0ABC0182E794E0E7
:101D10000E94F60ACE0107960E943C0ACE010D965B
:101D20000E943C0ACE0101960E943C0A64E971E0DF
:101D3000CE0101960E94160B62E774E0CE010D966B
:101D40000E940D0BBE01635F7F4FCE0107960E947C
:101D50000D0BBE016F5F7F4FCE0107960E946C0A8C
:101D6000BC0182E794E00E94F60ACE0107960E9429
:101D70003C0ACE010D960E943C0ACE0101960E94BB
:101D80003C0A6091250370912603CE0101960E94C2
:101D9000A70C62E774E0CE010D960E940D0BBE0108
:101DA000635F7F4FCE0107960E940D0BBE016F5FF0
:101DB0007F4FCE0107960E946C0ABC0182E794E037
:101DC0000E94F60ACE0107960E943C0ACE010D96AB
:101DD0000E943C0ACE0101960E943C0A60E072E03B
:101DE000CE0101960E94160B62E774E0CE010D96BB
:101DF0000E940D0BBE01635F7F4FCE0107960E94CC
:101E00000D0BBE016F5F7F4FCE0107960E946C0ADB
:101E1000BC0182E794E00E94F60ACE0107960E9478
:101E20003C0ACE010D960E943C0ACE0101960E940A
:101E30003C0A0E9427082F83388749875A876B8777
:101E40007C87CE0107960E94E10596E0899FB0014C
:101E50001124655D7B4FCE0101960E940D0B62E758
:101E600074E0CE0143960E940D0BBE016D5E7F4F64
:101E7000CE010D960E940D0BBE016F5F7F4FCE010C
:101E80000D960E946C0ABC0182E794E00E94F60A5B
:101E9000CE010D960E943C0ACE0143960E943C0A58
:101EA000CE0101960E943C0A61E081E00E94640735
:101EB00062E774E08FE194E00E94CE0080911F03FE
:101EC0009091200303966CE370E00E94B01C909305
:101ED000200380931F0360911F0370912003CE01A4
:101EE0000D960E94CA0A66E971E0CE0101960E9431
:101EF000160BBE016F5F7F4FCE0107960E940D0B40
:101F0000BE01635F7F4FCE0107960E946C0A0E945C
:101F1000DC09CE0107960E943C0ACE0101960E9480
:101F20003C0ACE010D960E943C0A63EA71E0CE01A4
:101F300043960E94160B6AE571E0CE0149960E9415
:101F4000160B60911F0370912003CE010D960E9425
:101F5000CA0A6AE571E0CE0101960E94160BBE0125
:101F60006F5F7F4FCE0107960E940D0BBE01635F2E
:101F70007F4FCE0107960E946C0ABC01CE014996A4
:101F80000E94F60ACE0107960E943C0ACE010196F5
:101F90000E943C0ACE010D960E943C0A60914503C6
:101FA00070914603CE010D960E94CA0ABE01675E7B
:101FB0007F4FCE0101960E940D0BBE016F5F7F4FD8
:101FC000CE0107960E940D0BBE01635F7F4FCE01CD
:101FD00007960E946C0ABC01CE0149960E94F60A3F
:101FE000CE0107960E943C0ACE0101960E943C0A4F
:101FF000CE010D960E943C0A60911D0370911E0354
:10200000CE010D960E94CA0ABE01675E7F4FCE01C7
:1020100001960E940D0BBE016F5F7F4FCE010796A8
:102020000E940D0BBE01635F7F4FCE0107960E9499
:102030006C0ABC01CE0149960E94F60ACE010796B1
:102040000E943C0ACE0101960E943C0ACE010D96E8
:102050000E943C0A60ED77E080E090E00E94CA02B6
:102060000E94B20B0E940C0DCE0149960E943C0AC0
:10207000CE0143960E943C0A6E960FB6F894DEBFDE
:102080000FBECDBFDF91CF910895EF92FF920F93D6
:102090001F93CF93DF9300D000D000D0CDB7DEB731
:1020A000182F062F7A016DEF71E0493E534014F46A
:1020B0006FEF71E08BE594E00E94C00A80910F03FE
:1020C00090911003019749F5B701CE0101960E9446
:1020D000A70CBE016F5F7F4F87E694E00E94F10975
:1020E000CE0101960E943C0A6FEF610F8FEF800FC7
:1020F0000E94640767E674E08FE194E00E94CE00DE
:1021000026960FB6F894DEBF0FBECDBFDF91CF91FC
:102110001F910F91FF90EF9008956BE574E087E6B3
:1021200094E00E94F60AE0CF85ED8093BC00809198
:10213000BE029091BF02A091C002B091C102079669
:10214000A11DB11D23E0B695A795979587952A9572
:10215000D1F72091BC0024FD03C01092BC02089569
:102160004091BE025091BF026091C0027091C102C5
:10217000452B462B472B69F30097A105B10541F08C
:1021800025E32A95F1F700000197A109B109E1CFF4
:102190008091BD020C9450041F920F920FB60F92C3
:1021A00011242F933F934F935F936F937F938F935C
:1021B0009F93AF93BF93EF93FF938BE493E00E94C1
:1021C0005A01FF91EF91BF91AF919F918F917F91B4
:1021D0006F915F914F913F912F910F900FBE0F9094
:1021E0001F9018951F920F920FB60F9211242F93E4
:1021F0008F939F93EF93FF93E0915B03F0915C03C8
:102200008081E0916103F091620382FD1BC09081A7
:10221000809164038F5F8F7320916503821741F073
:10222000E0916403F0E0E55BFC4F958F80936403DD
:10223000FF91EF919F918F912F910F900FBE0F9073
:102240001F9018958081F4CF1F920F920FB60F92B6
:1022500011242F933F938F939F93AF93BF938091BC
:10226000470390914803A0914903B0914A033091EC
:10227000E40223E0230F2D3758F50196A11DB11D6F
:102280002093E4028093470390934803A09349036B
:10229000B0934A038091E5029091E602A091E70293
:1022A000B091E8020196A11DB11D8093E5029093C3
:1022B000E602A093E702B093E802BF91AF919F912D
:1022C0008F913F912F910F900FBE0F901F901895F7
:1022D00026E8230F0296A11DB11DD2CF1F920F92A7
:1022E0000FB60F9211242F933F934F935F936F93E9
:1022F0007F938F939F93AF93BF93EF93FF938091BF
:10230000B900887F803609F44AC0F0F5883209F4B4
:10231000A7C018F5803109F49BC0B8F4882309F4EC
:10232000F9C0883009F494C0FF91EF91BF91AF914B
:102330009F918F917F916F915F914F913F912F91DD
:102340000F900FBE0F901F901895883109F488C028
:10235000803251F78093BA0214C0803409F49DC0D2
:1023600040F48033B9F38833F9F68093BA0285ECF0
:10237000B0C0803509F485C0883509F496C088342A
:1023800099F60E949410D0CF883909F48CC038F5A2
:10239000883729F050F4883611F0803729F683E029
:1023A0008093BC021092950257C0883809F47BC014
:1023B000803919F0803809F0B7CF809195028032CA
:1023C00008F071C0E091950281E08E0F8093950234
:1023D0008091BB00F0E0EB58FD4F80833DC0803B17
:1023E00039F0E0F4803A09F479C0883A09F09CCFDA
:1023F00084E08093BC021092740210927302E09108
:10240000EB02F091EC0209958091730281110FC0EB
:1024100081E0809373021092530209C0803C09F45A
:10242000A6CF883C09F4A3CF883B09F07DCFE0918B
:10243000740281E08E0F80937402F0E0ED5AFD4F3C
:1024400080818093BB00909174028091730229C0B7
:10245000809197028093BB0085EC8093BC0064CF91
:102460009091B9028091B802981758F5E091B9029D
:1024700081E08E0F8093B902F0E0E856FD4F808135
:10248000E9CFE091B90281E08E0F8093B90280918B
:10249000BB00F0E0E856FD4F80839091B902809137
:1024A000B8029817C8F285E8D8CFE091B90281E068
:1024B0008E0F8093B9028091BB00F0E0E856FD4F8B
:1024C00080838091BB0281115CCF81E08093960272
:1024D00084EA8093BC001092BC0226CF85EC8093E6
:1024E000BC001092BC0280919502803230F4E091E1
:1024F0009502F0E0EB58FD4F10826091950270E07C
:10250000E091E902F091EA0285E792E009951092E4
:1025100095020ACF1092BA0234CFCF93DF93EBE447
:10252000F3E01382128288EE93E0A0E0B0E08483AF
:102530009583A683B7832CE231E03183208325EC99
:1025400030E03587248724EC30E03787268720EC7D
:1025500030E0318B208B21EC30E0338B228B22EC6E
:1025600030E0358B248B26EC30E0378B268B118EB8
:10257000128E138E148EE8EEF3E01382128284839F
:102580009583A683B7838EE391E0918380836AE588
:1025900071E088E794E00E94160B6AE571E082E73B
:1025A00094E00E94160BEFE6F4E0CBE0C0838AE0F3
:1025B00081838CE08283F0936E04E0936D046AE57E
:1025C00071E087E694E00E94160B6AE571E081E60F
:1025D00094E00E94160B6AE571E08BE594E00E949E
:1025E000160B6AE571E08BE294E00E94160B6FEA2D
:1025F00071E081E394E00E94160B64EB71E087E3E5
:1026000094E00E94160B69EB71E08DE394E00E9468
:10261000160B6EEB71E083E494E00E94160B63EC02
:1026200071E089E494E00E94160B68EC71E08FE49D
:1026300094E00E94160B6DEC71E085E594E00E9439
:10264000160BEFE1F4E01382128280E591E09183B2
:10265000808387E28483D0E1D18782E082871386FA
:102660006AE571E089E194E00E94160B6AE571E089
:1026700083E194E00E94160B6AE571E08DE094E03E
:102680000E94160B6AE571E087E094E00E94160B49
:10269000A4EFB3E01596DC9315971696CC93169796
:1026A000EAECF0E0E4911796EC931797E6EBF0E094
:1026B000E4911896EC93189740E85EE360E070E0D0
:1026C0001D964D935D936D937C935097DF91CF91C1
:1026D0000895CF93DF93CDB7DEB762970FB6F89426
:1026E000DEBF0FBECDBF789484B5826084BD84B553
:1026F000816084BD85B5826085BD85B5816085BDFD
:1027000080916E00816080936E00109281008091B4
:10271000810082608093810080918100816080933C
:102720008100809180008160809380008091B10061
:1027300084608093B1008091B00081608093B0008C
:1027400080917A00846080937A0080917A00826020
:1027500080937A0080917A00816080937A008091E2
:102760007A00806880937A001092C1008CE090E03B
:1027700090930E0380930D038BE090E090930C03F5
:1027800080930B038AE090E090930A0380930903FF
:102790006AE571E088E794E00E94C00A6AE571E0AA
:1027A00082E794E00E94C00A10920503109206038B
:1027B000109207031092080310922A031092290323
:1027C00010922803109227031092260310922503DB
:1027D00010924603109245031092200310921F039B
:1027E00010923C0310923B0310921E0310921D03A3
:1027F000109242031092410310923D0310923E0347
:1028000010923F031092400310924403109243032E
:1028100010920403109203031092140310921303F6
:1028200010921203109211031092100310920F03D2
:1028300000916D0410916E0460E0F80181810E94A6
:10284000690260E0F80180810E94690260E0F8019D
:1028500082810E94690261E880916D0490916E040A
:102860000E94FD0780916D0490916E040E94A9075B
:10287000182FE0916D04F0916E0482810E949A06F7
:1028800060E880916D0490916E040E94FD07612FB5
:102890006F7740E080916D0490916E040E94D107A3
:1028A000E0916D04F0916E0482810E949A0610926C
:1028B0002E0310922D0381E090E090932C038093DF
:1028C0002B03109202031092010310923203109214
:1028D00031031092360310923503909334038093A2
:1028E0003303109200031092FF0210923A031092E9
:1028F0003903109222031092210329E030E0309333
:10290000300320932F0328E030E0309338032093E6
:10291000370327E030E030931A0320931903909394
:102920001C0380931B0360E871E087E694E00E943B
:10293000C00A6AE571E081E694E00E94C00A6AE597
:1029400071E08BE594E00E94C00A8AE591E09093E3
:1029500024038093230361E089E00E943B0261E04D
:1029600070E080E090E00E94CA028091FB029091AA
:10297000FC0261E00E9469028091FB029091FC02DE
:1029800060E00E943B0241ED51E06AED71E0CE0152
:1029900001960E942B06CE0101960E94F2080E9429
:1029A000B20B1092F0021092EF021092EE0210920F
:1029B000ED020E9432048BEC90E09093EC02809345
:1029C000EB028CEC90E09093EA028093E902109283
:1029D000240480912904823018F098E09093240414
:1029E0008093270462E370E080E090E00E94CA02D6
:1029F00060912A048FE194E00E94F70468EE73E08E
:102A000080E090E00E94CA0260E38FE194E00E94BF
:102A100034070BE416E4C8010197F1F760E38FE196
:102A200094E00E943407C8010197F1F760E38FE159
:102A300094E00E94340783E592E00197F1F760E2A9
:102A40008FE194E00E94340760912404606240E0CA
:102A50008FE194E00E944D0784E08093250440E0DC
:102A60006CE08FE194E00E944D070E94980712E00D
:102A70001093260440E066E08FE194E00E944D0749
:102A800040E062E08FE194E00E944D078BE39FE11C
:102A90000197F1F788E080932A0460E08FE194E0E9
:102AA0000E94F70461E089E00E9469021A8219829B
:102AB0001C821B821E821D8200E20F831886BE01CB
:102AC000695F7F4FCE0101960E94C00ABE016F5F11
:102AD0007F4F89E194E00E94F109CE0101960E94A6
:102AE0003C0A1A8219821C821B821E821D820F835D
:102AF0001886BE01695F7F4FCE0101960E94C00A11
:102B0000BE016F5F7F4F83E194E00E94F109CE0127
:102B100001960E943C0AE0915B03F0915C031083F4
:102B2000E0915703F09158031082E0915903F0911E
:102B30005A038FEC808310926303E0915F03F0915E
:102B4000600386E08083E0915D03F0915E03808105
:102B500080618083E0915D03F0915E0380818860F5
:102B60008083E0915D03F0915E03808180688083C3
:102B7000E0915D03F0915E0380818F7D80831092F0
:102B8000180310921703109216031092150366EEA5
:102B900071E08DE094E00E94C00A64EF71E087E08C
:102BA00094E00E94C00A1092FE021092FD02109260
:102BB000FC021092FB0285E090E09093FA02809371
:102BC000F90281E090E09093F8028093F70282E0AE
:102BD00090E09093F6028093F50283E090E090936A
:102BE000F4028093F30284E090E09093F2028093E9
:102BF000F10262E08091F9030E9469022FB7F89414
:102C00008091470390914803A0914903B0914A03F2
:102C10002FBF805D9740A109B1098093FD03909378
:102C2000FE03A093FF03B093000487E380930604A0
:102C30000CE310E05DE1E52EF12C44E0C42ED12C34
:102C400029E0822E912C30E0A32E30E0B32E0E949A
:102C5000270829833A834B835C836D837E83872F88
:102C600090E0909344038093430320914303309179
:102C7000440380914303909144032817390709F0D6
:102C800002C280913703909138030E941D0790E0A3
:102C900090933603809335038091350390913603EA
:102CA0000197F1F58091330390913403892BC1F59D
:102CB0008091390390913A030196B4010E94B01CAF
:102CC00090933A03809339038091390390913A03AA
:102CD000892B41F40E9498070E94B20B1092320394
:102CE000109231038091390390913A03019731F0AA
:102CF0008091390390913A03059741F40E94980717
:102D000083E090E00E94A2060E942E0E809139037B
:102D100090913A03049721F08091390390913A03FE
:102D2000809135039091360390933403809333035D
:102D300080912F03909130030E941D0790E09093A3
:102D40002E0380932D0320912D0330912E032130EB
:102D50003105E9F480912B0390912C03892BB9F470
:102D60008091390390913A03892B09F0A2C0809198
:102D70003103909132030196B6010E94B01C9093EA
:102D800032038093310330931C0320931B03809103
:102D90002D0390912E0390932C0380932B0380910D
:102DA0004303909144030196B8010E94B01C909394
:102DB0004403809343032091430330914403809163
:102DC0004103909142032817390709F422C18091E9
:102DD0003D0390913E03A0913F03B09140030196C3
:102DE000A11DB11D80933D0390933E03A0933F032B
:102DF000B093400380914303909144039093420326
:102E00008093410381E090E090933C0380933B03E7
:102E100061E08DE00E9464074090390350903A03CE
:102E2000052C000C660877084AE0C301B20177FE62
:102E30000EC041E06DE28FE194E00E944D076627ED
:102E40007727CB0164197509860997094AE00E9422
:102E50008E098091390390913A03892B09F08CC235
:102E600080911B0390911C03019709F003C11092FC
:102E70001C0310921B030E949807809131039091CC
:102E800032038130910509F4E3C00CF0C7C0892BEF
:102E900009F4DEC08091190390911A0361E00E9449
:102EA00069028091190390911A0360E00E943B022D
:102EB000E1C08091390390913A03181619060CF07D
:102EC00066CFE0913903F0913A033197E830F1058C
:102ED00008F05DCFE259F84E0C94E61C76178E1779
:102EE000A5170218DB17E817F517021880912903B8
:102EF00090912A03019690932A038093290380914D
:102F0000290390912A03833098400CF440CF80ED40
:102F100097E090932A038093290339CF8091270368
:102F20009091280301969093280380932703809122
:102F30002703909128030D970CF429CF81E090E0AE
:102F4000909328038093270322CF809125039091AB
:102F5000260301969093260380932503E09127038F
:102F6000F0912803EE0FFF1FE25FFE4F80819181F9
:102F700090932403809323038091290390912A0343
:102F800083709927892B21F4F0922403E092230384
:102F900020912503309126038091230390912403EF
:102FA000821793070CF0F3CE81E090E09093260314
:102FB00080932503ECCE80914503909146030196C2
:102FC000B8010E94B01C9093460380934503DFCE66
:102FD00080911F03909120030196B8010E94B01CBC
:102FE0009093200380931F03D2CE80911D03909174
:102FF0001E030196B8010E94B01C90931E0380939B
:103000001D03C5CE81E090E09093220380932103BD
:10301000BECE10923C0310923B03FACE8230910553
:1030200009F441C0039709F035CF809119039091BD
:103030001A0361E00E9469028091190390911A03BA
:1030400061E00E943B020E94270B82E090E010C0EA
:103050008091190390911A0361E00E9469028091A6
:10306000190390911A0360E00E943B0283E090E014
:103070000E94A2068091310390913203009731F1B2
:10308000019709F450C08091450390914603A11423
:10309000B10409F4DCCD0E944601882309F4D0CDA7
:1030A0000E940000CACD8091190390911A0361E03B
:1030B0000E9469028091190390911A0361E00E94B5
:1030C0003B020E94270B81E090E0D2CF80913B032E
:1030D00090913C030197B9F680914303909144038A
:1030E0006AE070E00E94B01C892B29F40E949807C6
:1030F0000E942E0EC8CF60E088E00E9464076091B5
:103100001D0370911E03CE0101960E94A70CBE0103
:103110006F5F7F4F8FE194E00E94CE00CE01019659
:103120000E943C0AB0CF80913B0390913C030197F1
:1031300009F0A9CF0E94FC02882341F08091FA0394
:103140008C3009F464C038F48B3001F160E070E039
:1031500080EC9FE743C085518230C0F77090F60342
:10316000672D70E0762F662766277F778091F703BB
:10317000682B90E080E00E94BB1A2DEC3CEC4CECFC
:103180005DE30E94F81A77FE29C05FC06091F603E4
:1031900070E090E080E00E94BB1A1B012C0170904F
:1031A000F70377FE0AC0AC019B0160E070E080E8A5
:1031B0009FEB0E94ED1B1B012C01672D6F7070E0CF
:1031C00090E080E00E94BD1A2DEC3CEC4CEC5DE3FD
:1031D0000E94F81AA20191010E94EE1B0E945A1C43
:1031E00070931803609317030E94FC02882351F028
:1031F0008091FA038B3030F08D3048F18551823068
:1032000008F4A8C060E070E080EC9FE73CC030901C
:10321000F603632D70E090E080E00E94BB1A2B0162
:103220003C016091F7036F7070E090E080E00E94D5
:10323000BD1A2DEC3CEC4CEC5DE30E94F81AA301A6
:1032400092010E94EE1B37FEC9CF9058C7CF609104
:10325000F50370E090E080E00E94BD1A2DEC3CEC9C
:103260004CEC5DE30E94F81A2B013C016091F403E1
:1032700070E090E080E00E94BD1A9B01AC01C301A8
:10328000B2010E94EE1B0E945A1C709316036093B9
:10329000150360E080E00E9464076091170370915D
:1032A0001803CE010D960E94CA0A6DE074E0CE01AB
:1032B00001960E940D0BBE016F5F7F4FCE010796F6
:1032C0000E940D0BBE01635F7F4FCE0107960E94E7
:1032D0006C0ABC018FE194E00E94CE00CE010796FB
:1032E0000E943C0ACE0101960E943C0ACE010D9636
:1032F0000E943C0A61E080E00E946407609115032F
:1033000070911603CE010D960E94CA0A67E074E020
:10331000CE0101960E940D0BBE016F5F7F4FCE0163
:1033200007960E940D0BBE01635F7F4FCE0107968B
:103330000E946C0ABC018FE194E00E94CE00CE0195
:1033400007960E943C0ACE0101960E943C0ACE01DB
:103350000D96E6CE6091F4037091F503762767270A
:10336000762790E080E00E94BB1A2DEC3CEC4CEC00
:103370005DE30E94F81A87CF2FB7F8948091470336
:1033800090914803A0914903B0914A032FBF9093B5
:1033900014038093130380911303909114032091DD
:1033A000110330911203821B930B8B3F91050CF498
:1033B0006ACE80911303909114039093120380932B
:1033C000110380910F0390911003019662E070E069
:1033D0000E94B01C9093100380930F0380911903F7
:1033E00090911A0361E00E94690280911903909103
:1033F0001A0360E00E943B02E0913903F0913A0326
:103400003197E830F10508F03ECEE75FF54E0C94B9
:10341000E61C111A1C1A231A411A2A1A331A3A1ACC
:10342000411A4091290350912A0362E070E082E042
:1034300090E00E94451027CE409127035091280329
:1034400067E070E0F4CF40912503509126036AE0D5
:1034500070E0EDCF409145035091460365E070E088
:1034600081E090E0E6CF40911F035091200368E097
:1034700070E0F6CF40911D0350911E036BE070E0A9
:10348000EFCF42E052E06EE172E0CE0101960E9481
:103490002B06CE0101960E94F2086AE070E080E0FF
:1034A00090E00E94CA0224CECF93DF9387E094E09D
:1034B0000E943C0A8DE094E00E943C0A83E194E083
:1034C0000E943C0A89E194E00E943C0ACBE5D4E0EA
:1034D0002697CE010E943C0A84E0CB32D807C1F780
:1034E0008BE594E00E943C0A81E694E00E943C0A4D
:1034F00087E694E00E943C0A82E794E00E943C0A3E
:1035000088E794E0DF91CF910C943C0ABB274A30C6
:1035100031F4992322F4BDE2909581959F4F0C944C
:10352000921ABB27FB015527AA27880F991FAA1FAC
:10353000A41710F0A41B83955051B9F7A05DAA33CE
:1035400008F0A95DA193009779F7B111B193119299
:10355000CB010C94AB1ADC01FC01672F719177232E
:10356000E1F7329704C07C916D9370836291AE173E
:10357000BF07C8F30895E89409C097FB3EF49095FF
:103580008095709561957F4F8F4F9F4F9923A9F03C
:10359000F92F96E9BB279395F695879577956795CB
:1035A000B795F111F8CFFAF4BB0F11F460FF1BC00F
:1035B0006F5F7F4F8F4F9F4F16C0882311F096E9A2
:1035C00011C0772321F09EE8872F762F05C0662350
:1035D00071F096E8862F70E060E02AF09A95660F09
:1035E000771F881FDAF7880F9695879597F90895C2
:1035F0000E940B1B0C947C1B0E946E1B38F00E94D7
:10360000751B20F0952311F00C94651B0C946B1B1B
:1036100011240C94B01B0E948D1B70F3959FC1F375
:10362000950F50E0551F629FF001729FBB27F00D70
:10363000B11D639FAA27F00DB11DAA1F649F6627C5
:10364000B00DA11D661F829F2227B00DA11D621F14
:10365000739FB00DA11D621F839FA00D611D221FCE
:10366000749F3327A00D611D231F849F600D211DB2
:10367000822F762F6A2F11249F5750409AF0F1F035
:1036800088234AF0EE0FFF1FBB1F661F771F881F9E
:1036900091505040A9F79E3F510580F00C94651B56
:1036A0000C94B01B5F3FE4F3983ED4F38695779576
:1036B0006795B795F795E7959F5FC1F7FE2B880F44
:1036C000911D9695879597F9089597F99F6780E8DA
:1036D00070E060E008959FEF80EC089500240A9464
:1036E0001616170618060906089500240A941216DD
:1036F0001306140605060895092E0394000C11F410
:10370000882352F0BB0F40F4BF2B11F460FF04C0BC
:103710006F5F7F4F8F4F9F4F089557FD9058440F15
:10372000551F59F05F3F71F04795880F97FB991F20
:1037300061F09F3F79F087950895121613061406DD
:10374000551FF2CF4695F1DF08C01616170618066A
:10375000991FF1CF86957105610508940895E89445
:10376000BB2766277727CB0197F908952F923F92C1
:103770004F925F926F927F928F929F92AF92BF9281
:10378000CF92DF92EF92FF920F931F93CF93DF932D
:10379000CDB7DEB7CA1BDB0B0FB6F894DEBF0FBE8A
:1037A000CDBF09942A88398848885F846E847D84D7
:1037B0008C849B84AA84B984C884DF80EE80FD80D9
:1037C0000C811B81AA81B981CE0FD11D0FB6F8944F
:1037D000DEBF0FBECDBFED0108955058BB27AA270D
:1037E0000E94051C0C947C1B0E946E1B38F00E94EA
:1037F000751B20F039F49F3F19F426F40C946B1BD1
:103800000EF4E095E7FB0C94651BE92F0E948D1BDD
:1038100058F3BA17620773078407950720F079F405
:10382000A6F50C94AF1B0EF4E0950B2EBA2FA02D2D
:103830000B01B90190010C01CA01A0011124FF275D
:10384000591B99F0593F50F4503E68F11A16F04058
:10385000A22F232F342F4427585FF3CF4695379557
:103860002795A795F0405395C9F77EF41F16BA0B1C
:10387000620B730B840BBAF09150A1F0FF0FBB1FCA
:10388000661F771F881FC2F70EC0BA0F621F731F13
:10389000841F48F4879577956795B795F7959E3F70
:1038A00008F0B0CF9395880F08F09927EE0F979501
:1038B000879508950E94611C6894B1110C94B01B07
:1038C00008950E94951B88F09F5798F0B92F99276B
:1038D000B751B0F0E1F0660F771F881F991F1AF0FB
:1038E000BA95C9F714C0B13091F00E94AF1BB1E096
:1038F00008950C94AF1B672F782F8827B85F39F095
:10390000B93FCCF3869577956795B395D9F73EF493
:1039100090958095709561957F4F8F4F9F4F08953B
:10392000991B79E004C0991F961708F0961B881F11
:103930007A95C9F780950895AA1BBB1B51E107C072
:10394000AA1FBB1FA617B70710F0A61BB70B881F2F
:10395000991F5A95A9F780959095BC01CD010895BE
:1039600097FB072E16F4009407D077FD09D00E942C
:103970009C1C07FC05D03EF4909581959F4F0895BF
:10398000709561957F4F0895A1E21A2EAA1BBB1B6B
:10399000FD010DC0AA1FBB1FEE1FFF1FA217B3071B
:1039A000E407F50720F0A21BB30BE40BF50B661F31
:1039B000771F881F991F1A9469F7609570958095F5
:1039C00090959B01AC01BD01CF010895EE0FFF1F43
:1039D0000590F491E02D09940F931F93CF93DF93FB
:1039E0008230910510F482E090E0E0918004F09143
:1039F000810430E020E0B0E0A0E0309799F4211598
:103A0000310509F44AC0281B390B24303105D8F59B
:103A10008A819B816115710589F1FB019383828302
:103A2000FE0111C04081518102811381481759075D
:103A3000E0F04817590799F4109761F012960C932B
:103A4000129713961C933296CF01DF91CF911F915D
:103A50000F9108950093800410938104F4CF2115F1
:103A6000310551F04217530738F0A901DB019A01E3
:103A7000BD01DF01F801C1CFEF01F9CF90938104BF
:103A800080938004CDCFFE01E20FF31F81939193C9
:103A90002250310939832883D7CF20917E04309179
:103AA0007F04232B41F420910201309103013093D4
:103AB0007F0420937E0420910001309101012115A3
:103AC000310541F42DB73EB74091040150910501F5
:103AD000241B350BE0917E04F0917F04E217F3077D
:103AE000A0F42E1B3F0B2817390778F0AC014E5F6E
:103AF0005F4F2417350748F04E0F5F1F50937F0428
:103B000040937E04819391939FCFF0E0E0E09CCFBF
:103B1000CF93DF930097E9F0FC0132971382128272
:103B2000A0918004B0918104ED0130E020E0109775
:103B3000A1F420813181820F931F20917E04309166
:103B40007F042817390709F061C0F0937F04E093E0
:103B50007E04DF91CF910895EA01CE17DF07E8F5E3
:103B60004A815B819E0141155105B1F7E901FB8353
:103B7000EA8349915991C40FD51FEC17FD0761F4F1
:103B8000808191810296840F951FE9019983888332
:103B9000828193819B838A83F0E0E0E012968D918D
:103BA0009C9113970097B9F52D913C911197CD01F8
:103BB0000296820F931F20917E0430917F04281774
:103BC000390739F6309751F510928104109280042C
:103BD000B0937F04A0937E04BCCFD383C283408183
:103BE0005181840F951FC817D90761F44E5F5F4F4D
:103BF00088819981480F591F518340838A819B8115
:103C0000938382832115310509F0B0CFF0938104AD
:103C1000E09380049ECFFD01DC01C0CF13821282AD
:103C2000D7CFB0E0A0E0E7E1FEE10C94B81B8C0137
:103C3000009751F4CB010E94EC1C8C01C801CDB758
:103C4000DEB7E0E10C94D41BFC01E60FF71F9C01EA
:103C500022503109E217F30708F49DC0D901CD9134
:103C6000DC911197C617D70798F0C530D10530F30E
:103C7000CE0104978617970708F3C61BD70B229728
:103C8000C193D1936D937C93CF010E94881DD6CFB1
:103C90005B01AC1ABD0A4C018C0E9D1EA0918004E4
:103CA000B0918104512C412CF12CE12C109731F56D
:103CB00080917E0490917F048815990509F05CC07D
:103CC0004616570608F058C08091000190910101F6
:103CD000009741F48DB79EB74091040150910501C2
:103CE000841B950BE817F90708F055C0F0937F0483
:103CF000E0937E04F90171836083A0CF8D919C9144
:103D0000119712966C90129713967C901397A815A2
:103D1000B90559F56C0142E0C40ED11CCA14DB048C
:103D200020F1AC014A195B09DA011296159780F06F
:103D30006282738251834083D9016D937C93E11435
:103D4000F10471F0D7011396FC93EE93129776CF9E
:103D500022968C0F9D1FF90191838083F301EFCF91
:103D6000F0938104E093800469CF4816590608F463
:103D70002C017D01D3019ACFCB010E94EC1C7C0168
:103D8000009749F0AE01B8010E94CE1EC8010E9402
:103D9000881D870153CF10E000E050CFFB01DC010C
:103DA00002C001900D9241505040D8F70895FB0198
:103DB000DC0101900D920020E1F7089510E0C8E6C3
:103DC000D0E004C0FE010E94E61C2196C936D1074E
:103DD000C9F7F894FFCF0000820480000000400083
:103DE0001400540000001F001C001F001E001F00D4
:103DF0001E001F001F001E001F001E001F000000ED
:103E000000007C01DC000901C9013A0118012C0104
:103E100000000000C8049B04DE05710494048104C2
:103E2000720400000000A307DC00DE05CD000D0ACF
:103E30000048617070792042697274686461792108
:103E4000004B657272792C313074682E3230323208
:103E50000074696D650030003A00646973706C61CC
:103E600079203A4C7354696D65002D007365746D4B
:103E7000696E757465203D20006A616E2F30382FA1
:103E800032303232004D6F6E2E005475652E005761
:103E900065642E005468752E004672692E005361C9
:103EA000742E0053756E0030303A31383A35350093
:103EB0004E6F7620203920323032320074656D70BA
:103EC000657261747572653A200068756D69646920
:103ED00074793A2020202000736574686F75723AF7
:103EE0007365746D696E7574653A73657473656333
:103EF0006F6E64004A616E2F7365746461792F730D
:083F000065745965617200004F
:107E0000112484B714BE81FFF0D085E080938100F7
:107E100082E08093C00088E18093C10086E0809377
:107E2000C20080E18093C4008EE0C9D0259A86E02C
:107E300020E33CEF91E0309385002093840096BBD3
:107E4000B09BFECF1D9AA8958150A9F7CC24DD24C4
:107E500088248394B5E0AB2EA1E19A2EF3E0BF2EE7
:107E6000A2D0813461F49FD0082FAFD0023811F036
:107E7000013811F484E001C083E08DD089C08234E0
:107E800011F484E103C0853419F485E0A6D080C0E4
:107E9000853579F488D0E82EFF2485D0082F10E0AE
:107EA000102F00270E291F29000F111F8ED06801E7
:107EB0006FC0863521F484E090D080E0DECF843638
:107EC00009F040C070D06FD0082F6DD080E0C81688
:107ED00080E7D80618F4F601B7BEE895C0E0D1E017
:107EE00062D089930C17E1F7F0E0CF16F0E7DF06D8
:107EF00018F0F601B7BEE89568D007B600FCFDCFD4
:107F0000A601A0E0B1E02C9130E011968C91119780
:107F100090E0982F8827822B932B1296FA010C0160
:107F200087BEE89511244E5F5F4FF1E0A038BF0790
:107F300051F7F601A7BEE89507B600FCFDCF97BE46
:107F4000E89526C08437B1F42ED02DD0F82E2BD052
:107F50003CD0F601EF2C8F010F5F1F4F84911BD097
:107F6000EA94F801C1F70894C11CD11CFA94CF0C13
:107F7000D11C0EC0853739F428D08EE10CD085E9AC
:107F80000AD08FE07ACF813511F488E018D01DD067
:107F900080E101D065CF982F8091C00085FFFCCF94
:107FA0009093C60008958091C00087FFFCCF809118
:107FB000C00084FD01C0A8958091C6000895E0E648
:107FC000F0E098E1908380830895EDDF803219F02E
:107FD00088E0F5DFFFCF84E1DECF1F93182FE3DFCA
:107FE0001150E9F7F2DF1F91089580E0E8DFEE27F6
:047FF000FF270994CA
:027FFE00040479
:00000001FF
